{
  "_format": "hh-sol-artifact-1",
  "contractName": "WavePortal",
  "sourceName": "contracts/WavePortal.sol",
  "abi": [
    {
      "inputs": [],
      "stateMutability": "payable",
      "type": "constructor"
    },
    {
      "anonymous": false,
      "inputs": [
        {
          "indexed": true,
          "internalType": "address",
          "name": "from",
          "type": "address"
        },
        {
          "indexed": false,
          "internalType": "uint256",
          "name": "timestamp",
          "type": "uint256"
        },
        {
          "indexed": false,
          "internalType": "string",
          "name": "message",
          "type": "string"
        },
        {
          "indexed": false,
          "internalType": "string",
          "name": "username",
          "type": "string"
        }
      ],
      "name": "NewWave",
      "type": "event"
    },
    {
      "inputs": [],
      "name": "getAllWaves",
      "outputs": [
        {
          "components": [
            {
              "internalType": "address",
              "name": "waver",
              "type": "address"
            },
            {
              "internalType": "string",
              "name": "message",
              "type": "string"
            },
            {
              "internalType": "uint256",
              "name": "timestamp",
              "type": "uint256"
            },
            {
              "internalType": "string",
              "name": "username",
              "type": "string"
            }
          ],
          "internalType": "struct WavePortal.Wave[]",
          "name": "",
          "type": "tuple[]"
        }
      ],
      "stateMutability": "view",
      "type": "function"
    },
    {
      "inputs": [],
      "name": "getTotalWaves",
      "outputs": [
        {
          "internalType": "uint256",
          "name": "",
          "type": "uint256"
        }
      ],
      "stateMutability": "view",
      "type": "function"
    },
    {
      "inputs": [
        {
          "internalType": "address",
          "name": "",
          "type": "address"
        }
      ],
      "name": "lastWavedAt",
      "outputs": [
        {
          "internalType": "uint256",
          "name": "",
          "type": "uint256"
        }
      ],
      "stateMutability": "view",
      "type": "function"
    },
    {
      "inputs": [
        {
          "internalType": "string",
          "name": "",
          "type": "string"
        }
      ],
      "name": "userNames",
      "outputs": [
        {
          "internalType": "address",
          "name": "",
          "type": "address"
        }
      ],
      "stateMutability": "view",
      "type": "function"
    },
    {
      "inputs": [
        {
          "internalType": "string",
          "name": "username",
          "type": "string"
        }
      ],
      "name": "validateUserName",
      "outputs": [
        {
          "internalType": "bool",
          "name": "",
          "type": "bool"
        }
      ],
      "stateMutability": "view",
      "type": "function"
    },
    {
      "inputs": [
        {
          "internalType": "string",
          "name": "_message",
          "type": "string"
        },
        {
          "internalType": "string",
          "name": "username",
          "type": "string"
        }
      ],
      "name": "wave",
      "outputs": [
        {
          "internalType": "string",
          "name": "",
          "type": "string"
        }
      ],
      "stateMutability": "nonpayable",
      "type": "function"
    }
  ],
  "bytecode": "0x60806040526200004f6040518060400160405280601981526020017f57652068617665206265656e20636f6e737472756374656421000000000000008152506200007760201b62000a251760201c565b606444426200005f9190620001c4565b6200006b919062000261565b60018190555062000308565b62000117816040516024016200008e919062000184565b6040516020818303038152906040527f41304fac000000000000000000000000000000000000000000000000000000007bffffffffffffffffffffffffffffffffffffffffffffffffffffffff19166020820180517bffffffffffffffffffffffffffffffffffffffffffffffffffffffff83818316178352505050506200011a60201b60201c565b50565b60008151905060006a636f6e736f6c652e6c6f679050602083016000808483855afa5050505050565b60006200015082620001a8565b6200015c8185620001b3565b93506200016e8185602086016200022b565b6200017981620002f7565b840191505092915050565b60006020820190508181036000830152620001a0818462000143565b905092915050565b600081519050919050565b600082825260208201905092915050565b6000620001d18262000221565b9150620001de8362000221565b9250827fffffffffffffffffffffffffffffffffffffffffffffffffffffffffffffffff0382111562000216576200021562000299565b5b828201905092915050565b6000819050919050565b60005b838110156200024b5780820151818401526020810190506200022e565b838111156200025b576000848401525b50505050565b60006200026e8262000221565b91506200027b8362000221565b9250826200028e576200028d620002c8565b5b828206905092915050565b7f4e487b7100000000000000000000000000000000000000000000000000000000600052601160045260246000fd5b7f4e487b7100000000000000000000000000000000000000000000000000000000600052601260045260246000fd5b6000601f19601f8301169050919050565b6115d680620003186000396000f3fe608060405234801561001057600080fd5b50600436106100625760003560e01c80631a2318a8146100675780635187295914610097578063677cd575146100c75780639a2cdc08146100f7578063a42a466314610115578063bd43a90814610145575b600080fd5b610081600480360381019061007c9190610ccc565b610163565b60405161008e919061114f565b60405180910390f35b6100b160048036038101906100ac9190610d0d565b610395565b6040516100be919061116a565b60405180910390f35b6100e160048036038101906100dc9190610ccc565b6107d8565b6040516100ee9190611112565b60405180910390f35b6100ff610821565b60405161010c919061123c565b60405180910390f35b61012f600480360381019061012a9190610ca3565b61082a565b60405161013c919061123c565b60405180910390f35b61014d610842565b60405161015a919061112d565b60405180910390f35b6000806000905060008351116101ae576040517f08c379a00000000000000000000000000000000000000000000000000000000081526004016101a59061121c565b60405180910390fd5b600073ffffffffffffffffffffffffffffffffffffffff166004846040516101d691906110e6565b908152602001604051809103902060009054906101000a900473ffffffffffffffffffffffffffffffffffffffff1673ffffffffffffffffffffffffffffffffffffffff161415801561029357503373ffffffffffffffffffffffffffffffffffffffff1660048460405161024b91906110e6565b908152602001604051809103902060009054906101000a900473ffffffffffffffffffffffffffffffffffffffff1673ffffffffffffffffffffffffffffffffffffffff1614155b1561029d57600090505b600073ffffffffffffffffffffffffffffffffffffffff166004846040516102c591906110e6565b908152602001604051809103902060009054906101000a900473ffffffffffffffffffffffffffffffffffffffff1673ffffffffffffffffffffffffffffffffffffffff16141561031557600190505b3373ffffffffffffffffffffffffffffffffffffffff1660048460405161033c91906110e6565b908152602001604051809103902060009054906101000a900473ffffffffffffffffffffffffffffffffffffffff1673ffffffffffffffffffffffffffffffffffffffff16141561038c57600190505b80915050919050565b606042601e600360003373ffffffffffffffffffffffffffffffffffffffff1673ffffffffffffffffffffffffffffffffffffffff168152602001908152602001600020546103e49190611379565b10610424576040517f08c379a000000000000000000000000000000000000000000000000000000000815260040161041b906111fc565b60405180910390fd5b42600360003373ffffffffffffffffffffffffffffffffffffffff1673ffffffffffffffffffffffffffffffffffffffff16815260200190815260200160002081905550600160008082825461047a9190611379565b925050819055506104c06040518060400160405280600d81526020017f257320686173207761766564210000000000000000000000000000000000000081525033610abe565b600260405180608001604052803373ffffffffffffffffffffffffffffffffffffffff16815260200185815260200142815260200184815250908060018154018082558091505060019003906000526020600020906004020160009091909190915060008201518160000160006101000a81548173ffffffffffffffffffffffffffffffffffffffff021916908373ffffffffffffffffffffffffffffffffffffffff1602179055506020820151816001019080519060200190610585929190610b83565b506040820151816002015560608201518160030190805190602001906105ac929190610b83565b505050606460015442446105c09190611379565b6105ca9190611379565b6105d4919061148b565b600181905550603260015411610720576106236040518060400160405280600781526020017f257320776f6e210000000000000000000000000000000000000000000000000081525033610abe565b6000655af3107a4000905047811115610671576040517f08c379a0000000000000000000000000000000000000000000000000000000008152600401610668906111bc565b60405180910390fd5b60003373ffffffffffffffffffffffffffffffffffffffff1682604051610697906110fd565b60006040518083038185875af1925050503d80600081146106d4576040519150601f19603f3d011682016040523d82523d6000602084013e6106d9565b606091505b505090508061071d576040517f08c379a0000000000000000000000000000000000000000000000000000000008152600401610714906111dc565b60405180910390fd5b50505b3360048360405161073191906110e6565b908152602001604051809103902060006101000a81548173ffffffffffffffffffffffffffffffffffffffff021916908373ffffffffffffffffffffffffffffffffffffffff1602179055503373ffffffffffffffffffffffffffffffffffffffff167f0646f10b0148fe8db9a43af10b6956b53e1478c47afc7132c17e243449dfd3394285856040516107c793929190611257565b60405180910390a281905092915050565b6004818051602081018201805184825260208301602085012081835280955050505050506000915054906101000a900473ffffffffffffffffffffffffffffffffffffffff1681565b60008054905090565b60036020528060005260406000206000915090505481565b60606002805480602002602001604051908101604052809291908181526020016000905b82821015610a1c57838290600052602060002090600402016040518060800160405290816000820160009054906101000a900473ffffffffffffffffffffffffffffffffffffffff1673ffffffffffffffffffffffffffffffffffffffff1673ffffffffffffffffffffffffffffffffffffffff1681526020016001820180546108ef90611459565b80601f016020809104026020016040519081016040528092919081815260200182805461091b90611459565b80156109685780601f1061093d57610100808354040283529160200191610968565b820191906000526020600020905b81548152906001019060200180831161094b57829003601f168201915b505050505081526020016002820154815260200160038201805461098b90611459565b80601f01602080910402602001604051908101604052809291908181526020018280546109b790611459565b8015610a045780601f106109d957610100808354040283529160200191610a04565b820191906000526020600020905b8154815290600101906020018083116109e757829003601f168201915b50505050508152505081526020019060010190610866565b50505050905090565b610abb81604051602401610a39919061116a565b6040516020818303038152906040527f41304fac000000000000000000000000000000000000000000000000000000007bffffffffffffffffffffffffffffffffffffffffffffffffffffffff19166020820180517bffffffffffffffffffffffffffffffffffffffffffffffffffffffff8381831617835250505050610b5a565b50565b610b568282604051602401610ad492919061118c565b6040516020818303038152906040527f319af333000000000000000000000000000000000000000000000000000000007bffffffffffffffffffffffffffffffffffffffffffffffffffffffff19166020820180517bffffffffffffffffffffffffffffffffffffffffffffffffffffffff8381831617835250505050610b5a565b5050565b60008151905060006a636f6e736f6c652e6c6f679050602083016000808483855afa5050505050565b828054610b8f90611459565b90600052602060002090601f016020900481019282610bb15760008555610bf8565b82601f10610bca57805160ff1916838001178555610bf8565b82800160010185558215610bf8579182015b82811115610bf7578251825591602001919060010190610bdc565b5b509050610c059190610c09565b5090565b5b80821115610c22576000816000905550600101610c0a565b5090565b6000610c39610c34846112cd565b61129c565b905082815260208101848484011115610c5157600080fd5b610c5c848285611417565b509392505050565b600081359050610c7381611589565b92915050565b600082601f830112610c8a57600080fd5b8135610c9a848260208601610c26565b91505092915050565b600060208284031215610cb557600080fd5b6000610cc384828501610c64565b91505092915050565b600060208284031215610cde57600080fd5b600082013567ffffffffffffffff811115610cf857600080fd5b610d0484828501610c79565b91505092915050565b60008060408385031215610d2057600080fd5b600083013567ffffffffffffffff811115610d3a57600080fd5b610d4685828601610c79565b925050602083013567ffffffffffffffff811115610d6357600080fd5b610d6f85828601610c79565b9150509250929050565b6000610d85838361105e565b905092915050565b610d96816113cf565b82525050565b610da5816113cf565b82525050565b6000610db68261130d565b610dc08185611330565b935083602082028501610dd2856112fd565b8060005b85811015610e0e5784840389528151610def8582610d79565b9450610dfa83611323565b925060208a01995050600181019050610dd6565b50829750879550505050505092915050565b610e29816113e1565b82525050565b6000610e3a82611318565b610e44818561134c565b9350610e54818560208601611426565b610e5d81611578565b840191505092915050565b6000610e7382611318565b610e7d818561135d565b9350610e8d818560208601611426565b610e9681611578565b840191505092915050565b6000610eac82611318565b610eb6818561136e565b9350610ec6818560208601611426565b80840191505092915050565b6000610edf60348361135d565b91507f547279696e6720746f207769746864726177206d6f7265206d6f6e657920746860008301527f616e2074686520636f6e7472616374206861732e0000000000000000000000006020830152604082019050919050565b6000610f4560278361135d565b91507f4661696c656420746f207769746864726177206d6f6e65792066726f6d20636f60008301527f6e74726163742e000000000000000000000000000000000000000000000000006020830152604082019050919050565b6000610fab60298361135d565b91507f4d7573742077616974203330207365636f6e6473206265666f7265207761766960008301527f6e6720616761696e2e00000000000000000000000000000000000000000000006020830152604082019050919050565b6000611011600083611341565b9150600082019050919050565b600061102b60148361135d565b91507f557365726e616d652069732072657175697265640000000000000000000000006000830152602082019050919050565b60006080830160008301516110766000860182610d8d565b506020830151848203602086015261108e8282610e2f565b91505060408301516110a360408601826110c8565b50606083015184820360608601526110bb8282610e2f565b9150508091505092915050565b6110d18161140d565b82525050565b6110e08161140d565b82525050565b60006110f28284610ea1565b915081905092915050565b600061110882611004565b9150819050919050565b60006020820190506111276000830184610d9c565b92915050565b600060208201905081810360008301526111478184610dab565b905092915050565b60006020820190506111646000830184610e20565b92915050565b600060208201905081810360008301526111848184610e68565b905092915050565b600060408201905081810360008301526111a68185610e68565b90506111b56020830184610d9c565b9392505050565b600060208201905081810360008301526111d581610ed2565b9050919050565b600060208201905081810360008301526111f581610f38565b9050919050565b6000602082019050818103600083015261121581610f9e565b9050919050565b600060208201905081810360008301526112358161101e565b9050919050565b600060208201905061125160008301846110d7565b92915050565b600060608201905061126c60008301866110d7565b818103602083015261127e8185610e68565b905081810360408301526112928184610e68565b9050949350505050565b6000604051905081810181811067ffffffffffffffff821117156112c3576112c2611549565b5b8060405250919050565b600067ffffffffffffffff8211156112e8576112e7611549565b5b601f19601f8301169050602081019050919050565b6000819050602082019050919050565b600081519050919050565b600081519050919050565b6000602082019050919050565b600082825260208201905092915050565b600081905092915050565b600082825260208201905092915050565b600082825260208201905092915050565b600081905092915050565b60006113848261140d565b915061138f8361140d565b9250827fffffffffffffffffffffffffffffffffffffffffffffffffffffffffffffffff038211156113c4576113c36114bc565b5b828201905092915050565b60006113da826113ed565b9050919050565b60008115159050919050565b600073ffffffffffffffffffffffffffffffffffffffff82169050919050565b6000819050919050565b82818337600083830152505050565b60005b83811015611444578082015181840152602081019050611429565b83811115611453576000848401525b50505050565b6000600282049050600182168061147157607f821691505b602082108114156114855761148461151a565b5b50919050565b60006114968261140d565b91506114a18361140d565b9250826114b1576114b06114eb565b5b828206905092915050565b7f4e487b7100000000000000000000000000000000000000000000000000000000600052601160045260246000fd5b7f4e487b7100000000000000000000000000000000000000000000000000000000600052601260045260246000fd5b7f4e487b7100000000000000000000000000000000000000000000000000000000600052602260045260246000fd5b7f4e487b7100000000000000000000000000000000000000000000000000000000600052604160045260246000fd5b6000601f19601f8301169050919050565b611592816113cf565b811461159d57600080fd5b5056fea26469706673582212200f347c5f2a6da8c9b925e828edb76c83cabe91691f29d59635dab40b75fbc38c64736f6c63430008000033",
  "linkReferences": {},
  "deployedLinkReferences": {}
}